:100000000200DC0200C5780179007A007B247D0BB8
:100010007C00120121792E87A075B0007522097528
:100020002300E523703EE5B0B4010575230180345B
:100030007424A922780029F987A0752100E52124DC
:100040009C500280028002800C0521E521249C50F6
:1000500002800280F41522E52224F65002800280FC
:1000600003752209E523B40158E5B0B40153E52234
:1000700024F65002800280037522097424A9227894
:100080000029F987A0752100E521249C50028002F7
:100090008002800C0521E521249C5002800280F41E
:1000A000792787A0752100E521249C5002800280D9
:1000B00002800C0521E521249C5002800280F41569
:1000C0002202002222020006E4F5D075812F78205A
:0F00D0007A0FF608DAFC1200030200000200C8E3
:10010000C0F9A4B0999282F88090FF898288838B8D
:1001100000EC4D6036E4E0F608A31DBDFFF31C8043
:10012000F0B800118B00EC4D6021E7F609081DBD09
:10013000FFF41C80F1898288838B00EC4D600CE415
:0C01400093F608A31DBDFFF31C80F02205
:00000001FF
