:1000000002008AE5836003E49322A882E622E58366
:100010006004E4938003A882E6F822E5836004E4A8
:10002000938003A882E6F922E5836004E4938003C9
:10003000A882E6FA22E5836004E4938003A882E6BE
:10004000FB22E5836004E4938003A882E6FC22E5BA
:10005000836004E4938003A882E6FD22E5836004C4
:10006000E4938003A882E6FE22E5836004E49380A3
:1000700003A882E6FF22E4F5D075812A78207A0A67
:0D008000F608DAFC120119020000020076F9
:1001000068656C6C6F20776F726C640080098D80FD
:1001100075A00375A0022280F50202087520007503
:10012000210B75220175230075803875A00175A01B
:1001300000E4F524F5250201F2E5272480F5807519
:10014000A00175A000E5252523F582E5243522F5DB
:100150008312004F12010CE4F528F529E529242427
:10016000E52834FA50028002800280160529E5292C
:1001700070020528E5292424E52834FA500280027B
:1001800080EAE5252523F582E5243522F583A312AF
:100190000003604AE52724C0F58075A00175A00022
:1001A000E5252523F582E5243522F583A312004FAA
:1001B00012010CE4F528F529E5292424E52834FA70
:1001C00050028002800280160529E5297002052868
:1001D000E5292424E52834FA5002800280EA052724
:1001E000E52770020526E5252402F525E5243400DF
:1001F000F524E520B52407E521B525028007500246
:0B020000800302013980FE2202011C75
:00000001FF
