:100000000200B1802C8C298D2A800C758CD8758AC1
:10001000F0D28CC28DC28CAC29E52AFD152A700263
:100020001529ED24FFEC6480347F4002800280DBE0
:100030002280D2806675890175220075230175249E
:100040000275250C7526307527407528808522900D
:100050007C007D02120003752000752101E521243A
:10006000F7E5206480347F5002800280028026748D
:10007000222521F987907C007D641200030521E58B
:100080002170020520E52124F7E5206480347F50AB
:1000900002800280DA75900080FE228098E4F5D01C
:1000A00075812B78207A0BF608DAFC1200330200F7
:0400B0000002009DAD
:00000001FF
