:10000000020058898288838B00EC4D6036E4E0F66C
:1000100008A31DBDFFF31C80F0B800118B00EC4D50
:100020006021E7F609081DBDFFF41C80F189828874
:10003000838B00EC4D600CE493F608A31DBDFFF329
:100040001C80F022E4F5D075814F78207A2FF608D5
:0B005000DAFC12012D02000002004447
:100100004142434445464748494A4B4C4D4E2000E6
:1001100001000100010001000100010001000100D7
:10012000010001000100010001000100010203CAF9
:10013000780179007A007B227D0F7C00120019780B
:1001400001790F7A007B317D1E7C001200197580C9
:100150003875A00175A00075808075A00175A0009C
:1001600075B000C29020930280028007E4F539F553
:100170003A801AE53A453970028002801079268764
:100180008075A00375A002753900753A01209402AC
:1001900080028007E4F537F538801AE53845377076
:1001A00002800280107925878075A00375A00275F2
:1001B000370075380120950280028007E4F535F597
:1001C00036801AE536453570028002801079248722
:1001D0008075A00375A00275350075360120960262
:1001E00080028007E4F533F534801AE53445337036
:1001F00002800280107923878075A00375A00275A4
:10020000330075340120970280028007E4F531F550
:1002100032801AE5324531700280028010792287DF
:100220008075A00375A002753100753201D290C2AD
:100230009120930280028007E4F543F544801AE59B
:10024000444543700280028010792B878075A0039B
:1002500075A0027543007544012094028002800756
:10026000E4F541F542801AE5424541700280028082
:1002700010792A878075A00375A002754100754228
:100280000120950280028007E4F53FF540801AE5E1
:1002900040453F7002800280107929878075A00355
:1002A00075A002753F00754001209602800280070C
:1002B000E4F53DF53E801AE53E453D700280028042
:1002C000107928878075A00375A002753D00753EE2
:1002D0000120970280028007E4F53BF53C801AE597
:1002E0003C453B7002800280107927878075A0030F
:1002F00075A002753B00753C01D291C29220930219
:1003000080028007E4F54DF54E8019E54E454D70AD
:10031000028002800F75800175A00175A000754DE7
:1003200000754E0120940280028007E4F54BF54CE5
:10033000801AE54C454B700280028010792F87802F
:1003400075A00375A002754B00754C0120950280C5
:10035000028007E4F549F54A801AE54A45497002EA
:1003600080028010792E878075A00375A0027549E0
:1003700000754A0120960280028007E4F547F5489F
:10038000801AE5484547700280028010792D8780E9
:1003900075A00375A002754700754801209702807B
:1003A000028007E4F545F546801AE54645457002AA
:1003B00080028010792C878075A00375A002754596
:0D03C00000754601D2920201632202013055
:00000001FF
